:200000006EC100000C94FB2C0C94282D0C94552D0C94822D8CC100008AC1000088C10000A3
:2000200086C1000084C100000C94B02A0C94E8287EC100007CC100007AC1000078C100001A
:2000400076C1000074C1000072C1000070C100006EC100006CC100006AC100000C94F22E89
:2000600066C1000064C1000062C1000060C100005EC100005CC100005AC1000058C1000080
:2000800056C1000054C1000052C1000050C100004EC100004CC100004AC1000048C10000E0
:2000A00046C1000044C1000042C10000080B000202020100090400000102020000052400DC
:2000C000100105240101010424020605240600010705810310004009040100020A00000089
:2000E0000705020240000007058302400000040309042203410072006400750069006E0043
:200100006F0020004C0065006F006E006100720064006F001803410072006400750069000C
:200120006E006F0020004C004C004300120100020000004041233680000101020001120160
:200140000002020000404123368000010102000100C18081C105010902A1010901A10085D6
:200160000105091901290315002501950375018102950175058103050109300931093815FB
:2001800081257F750895038106C0C005010906A1018502050719E029E71500250175019585
:2001A00008810295017508810395067508150025650507190029658100C00904020001035F
:2001C0000000000921010100012265000705840340000100000000000000002A2B2800001A
:2001E000000000000000000000000000000000000000002C9EB4A0A1A2A434A6A7A5AE36F0
:200200002D3738271E1F20212223242526B333B62EB7B89F8485868788898A8B8C8D8E8F9F
:20022000909192939495969798999A9B9C9D2F3130A3AD350405060708090A0B0C0D0E0FFC
:20024000101112131415161718191A1B1C1DAFB1B0B50000000000240027002A002D0030CC
:200260000000000000250028002B002E003100000000002300260029002C002F00040404CE
:200280000404030405020202020403020202020606060606060404020202040408020110DE
:2002A000408040102040804080080204018040201002011080102040400000000200080E34
:2002C0000000030401000B0000070605040100080A0B0C0D0900EA2470273E2B7A2C1124CC
:2002E0001FBECFEFDAE0DEBFCDBF13E0A0E0B1E0ECE4F5E602C005900D92AA38B107D9F771
:2003000016E0AAE8B3E001C01D92A13DB107E1F712E0CEEDD2E004C02297FE010E94A03097
:20032000C63DD107C9F70E9487270C94A43268CEEF92FF920F931F937B018C0120E030E0A7
:2003400040E05FE48CD387FD0FC0C801B70120E030E040E05FE487D167D49B01AC01205048
:2003600030404040504805C0C801B7015DD49B01AC01B901CA011F910F91FF90EF900895B5
:20038000A0E0B0E0E6ECF1E00C946B30FC01EA018081823008F438C1DB019C91923008F418
:2003A00030C1843059F4943009F02EC1918111968C911197981709F021C126C1943009F4EF
:2003C00020C19230B1F4823009F01EC1CA01AF0128E0DA010D90AD01DC010D92CD012150E7
:2003E000C1F7DB0111968C9111979181892389830AC1823009F405C1C280D380DB011296DA
:200400006D907C90139724813581468157811496ED90FD900D911C911797C601861997097C
:200420005C0197FF04C0AA24BB24A81AB90AB0E2AB16B1040CF061C0181619066CF53701C8
:2004400048010A2C04C096948794779467940A94D2F781E090E0A0E0B0E00A2C04C0880F35
:20046000991FAA1FBB1F0A94D2F70197A109B1098E219F21A023B123EE24FF248701E39484
:200480000097A105B10519F4EE24FF248701E628F728082919293CC00097D1F1CA0CDB1CDD
:2004A00039014A010A2C04C096948794779467940A94D2F781E090E0A0E0B0E00A2C04C030
:2004C000880F991FAA1FBB1F0A94D2F70197A109B10982239323A423B52321E030E040E09C
:2004E00050E00097A105B10519F420E030E0A90126293729482959290BC06C147D0424F48C
:20050000EE24FF24870104C0630120E030E0A9018181FB019181891709F445C0882349F0A6
:20052000D801C701821B930BA40BB50B9C01AD0104C02E193F09400B510B57FD04C0198278
:20054000DB82CA820BC081E08983DB82CA8250954095309521953F4F4F4F5F4F2C833D8393
:200560004E835F830DC0880F991FAA1FBB1F8C839D83AE83BF838A819B8101979B838A837D
:200580008C819D81AE81BF819C01AD0121503040404050402F3FEFEF3E07EFEF4E07EFE3EF
:2005A0005E0708F30BC08983DB82CA822E0D3F1D401F511F2C833D834E835F8383E0888365
:2005C0002C813D814E815F8157FF1DC0DA01C90181709070A070B0705695479537952795B9
:2005E000822B932BA42BB52B8C839D83AE83BF838A819B8101969B838A8305C0E9EAF1E0ED
:2006000003C0FB0101C0FE01CF01CDB7DEB7EEE00C948730A0E2B0E0E0E1F3E00C94733064
:2006200069837A838B839C832D833E834F83588789E0E82EF12CEC0EFD1ECE010196B701B3
:20064000E2D48E010F5E1F4FCE010596B801DBD4C701B801AE01475E5F4F92DE06D4A096A5
:20066000E6E00C948F30A0E2B0E0E9E3F3E00C94733069837A838B839C832D833E834F8308
:2006800058878E01075F1F4FCE010196B801BBD491E1E92EF12CEC0EFD1ECE010596B7018D
:2006A000B2D48A8991E089278A8BC801B701AE01475E5F4F65DED9D3A096E6E00C948F309E
:2006C000A0E2B0E0E6E6F3E00C94673069837A838B839C832D833E834F835887CE01019694
:2006E000BE01675F7F4F8FD4CE010596BE016F5E7F4F89D49985923078F089898230C0F067
:20070000943019F4823041F4CBC0843019F4923079F4C6C0923051F481E02A859A892917A6
:2007200009F480E08A87CE010996BCC0823051F481E02A859A89291709F480E08A8BCE01B6
:200740004196B0C06D847E848F849888ED88FE880F89188DE0E2F0E080E090E0DC01AA24E7
:20076000BB24650120E030E0A901B3016170707061157105D1F02E0D3F1D401F511F1501EC
:200780002601280E391E4A1E5B1E81E090E0A0E0B0E02E153F054007510718F080E090E0E5
:2007A000DC01820D931DA41DB51DAA0CBB1CCC1CDD1C17FF09C061E0262E312C412C512C61
:2007C000A228B328C428D528319749F0EE0CFF1C001F111F9694879477946794C6CF6B8952
:2007E0007C89EB85FC856E0F7F1F6E5F7F4F7C8F6B8F61E0EA857A89E71709F460E06A8F61
:200800006B8D7C8D10C0FC01E170F070309729F056954795379527955068B695A7959795BF
:2008200087956F5F7F4FB7FDEECF0CC0880F991FAA1FBB1F57FD8160220F331F441F551F42
:20084000615070408030E0E09E07E0E0AE07E0E4BE0760F36B8F7C8F6FE7E62EF12C012D17
:20086000112DE822F9220A231B2360E4E616F1040105110561F487FD0AC021153105410504
:20088000510529F0805C9F4FAF4FBF4F80788D8F9E8FAF8FB8A383E0898FCE01499602C04E
:2008A00089EA91E0E2D2A096E2E10C948330A8E1B0E0EDE5F4E00C946F3069837A838B835F
:2008C0009C832D833E834F8358878E01075F1F4FCE010196B80197D381E1E82EF12CEC0E5C
:2008E000FD1ECE010596B7018ED39985923008F483C08989823008F47BC02A853A89232784
:200900002A87943011F0923021F4981709F06CC071C0843039F41D861E861F86188A1C8674
:200920001B866AC0823019F484E0898765C08B859C852B893C89821B930B9C878B872D85C8
:200940003E854F855889ED88FE880F89188D2E153F054007510738F4220F331F441F551F3B
:2009600001979C878B876FE170E0A12CB12CC12CA0E4DA2E80E090E0DC012E153F0540076C
:20098000510740F08A299B29AC29BD292E193F09400B510BD694C794B794A794220F331F99
:2009A000441F551F6150704041F76FE7E62EF12C012D112DE822F9220A231B2360E4E61604
:2009C000F1040105110561F487FD0AC0211531054105510529F0805C9F4FAF4FBF4F807874
:2009E0008D879E87AF87B88B8E01075F1F4F04C0870102C009EA11E0C80137D26896EAE056
:200A00000C948B30A8E1B0E0E8E0F5E00C94733069837A838B839C832D833E834F8358874A
:200A20008E01075F1F4FCE010196B801ECD281E1E82EF12CEC0EFD1ECE010596B701E3D2F5
:200A40008985823038F08989823020F0C801B70143D301C08FEF6896E6E00C948F30A8E158
:200A6000B0E0E5E3F5E00C94733069837A838B839C832D833E834F8358878E01075F1F4F6B
:200A8000CE010196B801BFD281E1E82EF12CEC0EFD1ECE010596B701B6D28985823038F06A
:200AA0008989823020F0C801B70116D301C08FEF6896E6E00C948F30A8E1B0E0E2E6F5E0E0
:200AC0000C94733069837A838B839C832D833E834F8358878E01075F1F4FCE010196B80119
:200AE00092D281E1E82EF12CEC0EFD1ECE010596B70189D28985823038F08989823020F0AF
:200B0000C801B701E9D201C081E06896E6E00C948F30A8E1B0E0EFE8F5E00C947330698360
:200B20007A838B839C832D833E834F8358878E01075F1F4FCE010196B80165D281E1E82E38
:200B4000F12CEC0EFD1ECE010596B7015CD28985823038F08989823020F0C801B701BCD248
:200B600001C081E06896E6E00C948F30A8E0B0E0ECEBF5E00C9473307B018C0183E08983B1
:200B8000D801C7018827B7FD83959927AA27BB27282F8A83E114F1040105110519F482E0ED
:200BA000898336C08EE190E09C838B83222389F080E0E81680E0F80680E0080780E81807B7
:200BC00059F110950095F094E094E11CF11C011D111DED82FE820F831887C801B701EBD0E7
:200BE0009C01215030401216130694F4022E04C0EE0CFF1C001F111F0A94D2F7ED82FE8200
:200C00000F8318878EE190E0821B930B9C838B83CE0101962AD104C060E070E080E09FECBC
:200C20002896E6E00C948F30ACE0B0E0EAE1F6E00C94773069837A838B839C83CE01019651
:200C4000BE016B5F7F4FDFD18D81823081F1823070F1843021F48E81882369F10AC02F81F1
:200C6000388537FD24C06E812F3131053CF0662311F120E030E040E050E821C08EE190E03B
:200C8000821B930B29853A854B855C8504C056954795379527958A95D2F7662381F0509521
:200CA0004095309521953F4F4F4F5F4F08C020E030E0A90104C02FEF3FEF4FEF5FE7B9013A
:200CC000CA012C96E2E00C949330A8E0B0E0EBE6F6E00C9471307B018C011A8261157105D1
:200CE0008105910519F482E089835EC083E089838EE1C82ED12CDC82CB82ED82FE820F8342
:200D00001887C801B70157D0FC013197F7FF3AC0AA27BB27AE1BBF0B21E030E040E050E030
:200D20000A2E04C0220F331F441F551F0A94D2F721503040404050402E213F21402351237F
:200D400061E070E080E090E0211531054105510519F460E070E0CB0104C016950795F7942B
:200D6000E794AA95D2F7E62AF72A082B192BED82FE820F8318878EE190E08E1B9F0B9C83D7
:200D80008B8312C0309781F00E2E04C0EE0CFF1C001F111F0A94D2F7ED82FE820F83188750
:200DA000CE1ADF0ADC82CB82CE0101965ED02896E8E00C948D30AF92BF92CF92DF92EF925B
:200DC000FF920F931F937B018C0180E0E81680E0F80681E0080780E0180758F4EFEFEE164C
:200DE000F1040105110509F090F480E090E0DC0117C0F0E0EF16F0E0FF06F0E00F07F1E080
:200E00001F0750F480E190E0A0E0B0E009C088E090E0A0E0B0E004C088E190E0A0E0B0E029
:200E200020E230E040E050E0281B390B4A0B5B0B5701680104C0D694C794B794A7948A951F
:200E4000D2F7D601C5018F549E4FFC018081281B310941095109C9011F910F91FF90EF9015
:200E6000DF90CF90BF90AF900895EF92FF920F931F93CF93DF93FC01248135814681578148
:200E800061818081823020F44061EFEFF0E0A3C0843009F49BC0823009F492C0211531057E
:200EA0004105510509F48FC00280F381E02D8FEFE238F8070CF05AC0C2E8DFEFCE1BDF0B4F
:200EC000CA31D1056CF579018A010C2E04C016950795F794E7940A94D2F781E090E0A0E0D8
:200EE000B0E00C2E04C0880F991FAA1FBB1F0A94D2F70197A109B10982239323A423B52315
:200F000021E030E040E050E00097A105B10519F420E030E0A9012E293F29402B512B03C04D
:200F200020E030E0A901DA01C9018F779070A070B07080349105A105B10539F427FF09C05A
:200F4000205C3F4F4F4F5F4F04C0215C3F4F4F4F5F4FE1E0F0E0203080E0380780E04807F1
:200F600080E4580728F5E0E0F0E022C0E038F1056CF5E158FF4FDA01C9018F779070A0706E
:200F8000B07080349105A105B10539F427FF09C0205C3F4F4F4F5F4F04C0215C3F4F4F4FAC
:200FA0005F4F57FF05C05695479537952795319687E056954795379527958A95D1F70BC0EA
:200FC000E0E0F0E005C0E0E0F0E005C0EFEFF0E020E030E0A9018E2F879588278795942F98
:200FE0009F77679566276795E695E22EA92FA82BFE2FF62B622F732F8A2F9F2FCDB7DEB7FF
:20100000E6E00C948F30DC01FB012C9111963C91119712968C911297482F4F7750E0982F57
:20102000991F9927991F13966C911397862F880F892B90E0661F6627661F6183009739F580
:20104000211531054105510511F482E029C082E89FEF9383828367E0220F331F441F551F84
:201060006A95D1F783E0808309C0220F331F441F551F82819381019793838283203080E0A6
:20108000380780E0480780E4580778F320C08F3F910579F4211531054105510519F484E00A
:2010A0008083089544FF03C081E0808310C010820EC08F5790409383828383E0808387E058
:2010C000220F331F441F551F8A95D1F7506424833583468357830895FC01DB0190819230D0
:2010E00008F449C08C91823008F445C0943051F461818430B1F511962C91119730E0261B79
:20110000310941C0843021F0923041F48230B1F111968C9111978823A1F12DC0618182305A
:2011200001F111968C9111976817D9F42281338112968D919C9113978217930794F028171B
:201140003907BCF0248135814681578114968D919D910D90BC91A02D82179307A407B50762
:2011600018F4662341F00DC0281739074A075B0728F4662331F021E030E005C020E030E0FE
:2011800002C02FEF3FEFC9010895FC01DB0132812381948185813C9311962C93119712960A
:2011A0009C93129713968C931397368127819085818514963C93149715962C931597169685
:2011C0009C93169717968C93179788E090E00895FC01DB0111962C91119730E040E050E0FF
:2011E000542F432F322F222712966C91129770E080E090E0CB0177276627262B372B482BC5
:20120000592B6C9170E080E090E0262B372B482B592B13966C91139770E080E090E0962F4E
:20122000882777276627262B372B482B592B228333834483558315962C91159730E040E0EC
:2012400050E0542F432F322F222716966C91169770E080E090E0CB0177276627262B372B9F
:20126000482B592B14966C91149770E080E090E0262B372B482B592B17968C9190E0A0E0A1
:20128000B0E0B82FAA2799278827282B392B4A2B5B2B268337834087518788E090E008956E
:2012A00080E091E008958F929F92AF92BF92CF92DF92EF92FF920F931F93CF93DF934C0183
:2012C000EB01398120E0888190E0822B932BD40113969C938E931297EA80FB800C811D81FD
:2012E000A80197012A5F3F4F4F4F5F4F273031054105510598F0E6E0F0E0DE01AE0FBF1F89
:20130000CD0101976C91DC016C933196CF01A0E0B0E082179307A407B50778F3F70136961E
:20132000EC0FFD1FDF0111971C92CE010596D40115969C938E931497A080B180C280D38095
:20134000EAE0F0E0EE0EFF1E9701442737FD4095542F2A0D3B1D4C1D5D1DC701A0E0B0E001
:2013600082179307A407B50790F4B701FE01E60FF71FDF01119780818C936F5F7F4FCB017D
:20138000A0E0B0E082179307A407B50778F3AE0CBF1CFE01EA0DFB1D319710820894E108B6
:2013A000F108EC0EFD1ED4011796FC92EE921697C501DF91CF911F910F91FF90EF90DF907F
:2013C000CF90BF90AF909F908F9008958EE091E0089587E093E00895FC01DB013281238112
:2013E000948185813C9311962C93119712969C93129713968C931397368127819085818589
:2014000014963C93149715962C93159716969C93169717968C93179732852385948585850E
:2014200018963C93189719962C9319971A969C931A971B968C931B973685278590898189C6
:201440001C963C931C971D962C931D971E969C931E971F968C931F97828950968C93509719
:20146000838951968C9351979489858952969C93529753968C9353979689878954969C930D
:20148000549755968C935597908D818D56969C93569757968C93579788E190E00895FC01CB
:2014A000DB0111962C91119730E040E050E0542F432F322F222712966C91129770E080E047
:2014C00090E0CB0177276627262B372B482B592B6C9170E080E090E0262B372B482B592B34
:2014E00013966C91139770E080E090E0962F882777276627262B372B482B592B22833383D8
:201500004483558315962C91159730E040E050E0542F432F322F222716966C91169770E073
:2015200080E090E0CB0177276627262B372B482B592B14966C91149770E080E090E0262B77
:20154000372B482B592B17966C91179770E080E090E0962F882777276627262B372B482BF5
:20156000592B268337834087518719962C91199730E040E050E0542F432F322F22271A961A
:201580006C911A9770E080E090E0CB0177276627262B372B482B592B18966C91189770E032
:2015A00080E090E0262B372B482B592B1B966C911B9770E080E090E0962F88277727662792
:2015C000262B372B482B592B22873387448755871D962C911D9730E040E050E0542F432FDE
:2015E000322F22271E966C911E9770E080E090E0CB0177276627262B372B482B592B1C9668
:201600006C911C9770E080E090E0262B372B482B592B1F966C911F9770E080E090E0962F03
:20162000882777276627262B372B482B592B26873787408B518B50968C915097828B519636
:201640008C915197838B53963C91539720E052968C91529790E0822B932B958B848B5596F4
:201660003C91559720E054968C91549790E0822B932B978B868B57963C91579720E056961D
:201680008C91569790E0822B932B918F808F88E190E0089587E291E00895FC01DB013281BD
:2016A0002381948185813C9311962C93119712969C93129713968C93139736812781908528
:2016C000818514963C93149715962C93159716969C93169717968C93179788E090E0089553
:2016E000FC01DB0111962C91119730E040E050E0542F432F322F222712966C91129770E068
:2017000080E090E0CB0177276627262B372B482B592B6C9170E080E090E0262B372B482B15
:20172000592B13966C91139770E080E090E0962F882777276627262B372B482B592B2283C7
:2017400033834483558315962C91159730E040E050E0542F432F322F222716966C911697CB
:2017600070E080E090E0CB0177276627262B372B482B592B14966C91149770E080E090E036
:20178000262B372B482B592B17968C9190E0A0E0B0E0B82FAA2799278827282B392B4A2B02
:2017A0005B2B268337834087518788E090E008958DE391E00895FC018281FB01808381E04E
:2017C00090E00895FB012081FC01228381E090E0089583E591E00895FB01DC0112964C917B
:2017E000129713963C91139714962C91149715968C911597408331832283838384E090E0A4
:201800000895EF92FF920F931F93FB01218130E040E050E0542F432F322F2227E280FF24A3
:2018200000E010E08701FF24EE242E293F29402B512BE080FF2400E010E02E293F29402BF8
:20184000512BE380FF2400E010E01E2D0027FF24EE242E293F29402B512BFC012283338311
:201860004483558384E090E01F910F91FF90EF90089581E691E00895FC01628173818481AC
:20188000958120E030E040EA51E411D80E9498016093C9020895CF92DF92EF92FF920F93BE
:2018A0001F93CF93DF93EC01062F8C81882361F4EE24FF24C701DF91CF911F910F91FF90C7
:2018C000EF90DF90CF900895DA01ED91FC919E01255F3F4F0190F081E02DCA01B901099555
:2018E0002FEF2D832E830F83188689871A86BC016B5F7F4F62307105B4F122E030E040E055
:2019000050E0FE01E20FF31FE5814E0F511D2F5F3F4F62177307ACF7FE01E80FF91F4095CF
:201920004387B7E0EB2EF12CE80EF91ECA80DB801E141F040CF0BECF00E010E0F6018081B8
:201940009181DC01ED91FC91DE01A00FB11F0190F081E02D15966C9109950F5F1F4F0E15DB
:201960001F0564F3A7CF40E050E0D6CFDB012C91FC0120870184F285E02D06960995089564
:2019800081E090E0089583E591E0089581E090E0089581E691E0089581E090E008958DE3A2
:2019A00091E00895FC018281882309F408950E943A2F60937505709376058093770590932C
:2019C00078050895AF92BF92CF92DF92EF92FF920F931F93CF93DF938C01EB01DC01129651
:2019E0009C91129713968C9113979883898314966C91149715967C91DB01FD0101900020E5
:201A0000E9F73197EA1BFB0BCF01A0E0B0E08A839B83AC83BD839E012A5F3F4FC901AF0169
:201A20000E949B322A813B8186E0E82EF12CE20EF31EEC0EFD1EF80166817781DB01FD016F
:201A400001900020E9F73197EA1BFB0B5F01CC24DD24D701AD92BD92CD92DC92139789016A
:201A6000065F1F4FC00FD11FCE01AF010E949B32D7012D913C911197200F311FC901DF9122
:201A8000CF911F910F91FF90EF90DF90CF90BF90AF9008956F927F928F929F92AF92BF9299
:201AA000CF92DF92FF920F931F93CF93DF938C01EB01DC0112968C911297888319821A8295
:201AC0001B8212968C911297882309F4D8C020E064E070E0822F90E0880F991F880F991F68
:201AE000F801A781B085A80FB91F4C9111963C91119712969C91129713968C91DE01A60F30
:201B0000B71F4C9311963C93119712969C93129713968C9313976C5F7F4F2F5F8281281797
:201B2000C8F2FB016F5F7F4FAB014F5F5F4FCA0101969C012F5F3F4FD9016F01CC0EDD1E11
:201B4000F801F184F601F0826C0F7D1FFB0110824C0F5D1FFA0110828C0F9D1FFC011082BF
:201B6000F8018185882319F140E0842F90E0880F991F880F991FD8011E96ED91FC911F9782
:201B8000E80FF91F6081518192818381FE01E20FF31F60835183928383832C5F3F4F4F5FD1
:201BA00019968C911997481700F3A22FB32FAC0FBD1FF80180898C932F5F3F4FFE01E20FE0
:201BC000F31F10822F5F3F4FFE01E20FF31F10822F5F3F4FFE01E20FF31F10822F5F3F4FE5
:201BE000D80150968C9150978823D1F1FF245E01A20EB31E8F2D90E0880F991FD801539675
:201C0000ED91FC915497E80FF91F60817181DB01FD0101900020E9F73197EA1BFB0B3F016E
:201C200088249924D5016D927D928D929C92139794E0C92ED12CC20ED31E9E012C0D3D1D05
:201C4000C901AF010E949B32F501208131812C0D3D1DF394D80150968C915097F81638F23D
:201C6000C901DF91CF911F910F91FF90DF90CF90BF90AF909F908F907F906F900895A8E00E
:201C8000B0E028E030E087E090E046E050E065E070E0E4E0F0E051CF6F927F928F929F92C2
:201CA000AF92BF92CF92DF92FF920F931F93CF93DF938C01EB01F880DC0112968C911297CB
:201CC0008F1508F44CC1D8011296FC921297FF2009F45BC160E044E0A42EB12C33E0832E90
:201CE000912C800E911EFE01EA0DFB1D818190E0A0E0B0E0BA2FA92F982F8827228130E070
:201D000040E050E0A90133272227822B932BA42BB52B208130E040E050E0822B932BA42BD1
:201D2000B52B238130E040E050E0522F442733272227822B932BA42BB52BF8018383948300
:201D4000A583B68384E090E0A80EB91E862F90E0880F991F880F991F0780F085E02DE80FFE
:201D6000F91FD4012D913D914D915C91139720833183428353836F5FF8018281681708F43E
:201D8000B2CFFE01EA0DFB1DF080D80119968C9119978F1508F40BC184E090E0A80EB91E22
:201DA000D8011996FC921997FF2009F454C060E03AE0832E912C800E911EFE01EA0DFB1D1A
:201DC000818190E0A0E0B0E0BA2FA92F982F8827228130E040E050E0A90133272227822B4D
:201DE000932BA42BB52B208130E040E050E0822B932BA42BB52B238130E040E050E0522FD6
:201E0000442733272227822B932BA42BB52BF80182879387A487B58784E090E0A80EB91EB6
:201E2000862F90E0880F991F880F991F0684F785E02DE80FF91FD4012D913D914D915C9191
:201E4000139720833183428353836F5FF8018185681708F4B2CFFE01EA0DFB1DF080D801C6
:201E600050968C9150978F1508F493C095012C5F3F4FD8015096FC925097FF2009F460C066
:201E8000FF24B1E18B2E912C800E911EDE01A20FB31FAD90BD90CD90DC901397A4E06A2E5F
:201EA000712C620E731EB301882777FD8095982F6A0D7B1D8C1D9D1D930140E050E026173E
:201EC000370748075907A0F4D3019E012A0F3B1FA90141505040F9012081FA0120831196D0
:201EE0009D0140E050E0261737074807590768F3A60CB71CDE01AA0DBB1D11971C92C30162
:201F000001978C0F9D1FD80152969C938E93519795018F2D90E0880F991F53960D90BC91F5
:201F2000A02DA80FB91FF401808191818D939C93F394D80150968C915097F81608F4A6CF25
:201F4000C901DF91CF911F910F91FF90DF90CF90BF90AF909F908F907F906F9008956F2D17
:201F600070E0660F771F660F771F17968D919C9118970E94D731F80187839087D80112960F
:201F8000FC921297FF2009F0A5CE54E0A52EB12CF8CE6F2D70E0660F771F53968D919C91AA
:201FA00054970E94D731F801838B948B5FCF6F2D70E0660F771F660F771F1E968D919C9137
:201FC0001F970E94D731F80186879787E5CECF93DF93EC018A81882389F460E08DE00E9487
:201FE0008A2E85E06A810E948A2E68EC70E080E090E00E94482FDF91CF91089586E791E0A7
:2020000090938B0080938A0080918A0090918B00909389008093880062E370E080E090E082
:202020000E94482F6A81DACFCF93DF93FC01EB01298130E040E050E0542F432F322F22278D
:202040008A8190E0A0E0B0E0DC0199278827282B392B4A2B5B2B888190E0A0E0B0E0282B1B
:20206000392B4A2B5B2B6B8170E080E090E0962F882777276627262B372B482B592B208705
:2020800031874287538724853585CF010696F9010995DF91CF9108959F92AF92BF92CF92ED
:2020A000DF92EF92FF920F931F93FC01A280B380C480D580E680F78000851185C601B501E9
:2020C00020E030E040E85FE30E94020518160CF46AC0C601B50120E030E040E85FEB0E94E4
:2020E0005C05982E991C9924991CC801B70120E030E040E85FE30E94020518160CF447C0B9
:20210000C801B70120E030E040E85FEB0E945C05881F8827881F992051F00F2EF0E0AF2ED8
:20212000F0E0BF2EF0E8CF2EFFEBDF2EF02D882351F00F2EF0E0EF2EF0E0FF2EF0E80F2FD0
:20214000FFEB1F2FF02DA0929B05B0929C05C0929D05D0929E05E0929F05F092A0050093AC
:20216000A1051093A2050E943A2F6093A3057093A4058093A5059093A6051F910F91FF90B3
:20218000EF90DF90CF90BF90AF909F90089580E00F2EF0E0EF2EF0E0FF2EF0E80F2FFFE319
:2021A0001F2FF02DB8CF99240F2EF0E0AF2EF0E0BF2EF0E8CF2EFFE3DF2EF02D96CFCF9321
:2021C000DF93C0919400D0919500809119060E94C42E8130910509F0B1C080911E069091E7
:2021E0001F06009709F4F3C0809107060E94C42E8130910509F05EC080910C0690910D060C
:20220000009709F4DFC0809110060E94C42E8130910569F48091150690911606009721F417
:20222000D0931606C0931506DF91CF91089580911506909116060097B9F38091150690914B
:202240001606C81BD90BD0930F06C0930E0680910E0690910F0697FDCBC080910E069091FC
:202260000F06880F991F880F991F90930F0680930E0610921606109215060E943A2F6093D3
:20228000110670931206809313069093140680910E0690910F062FE0813A920728F2109229
:2022A0001106109212061092130610921406DF91CF91089580910C0690910D06009709F47E
:2022C000A2CF80910C0690910D069E01281B390B309306062093050680910506909106063A
:2022E00097FD92C08091050690910606880F991F880F991F909306068093050610920D060F
:2023000010920C060E943A2F609308067093090680930A0690930B0680910506909106064B
:202320003FE0813A930708F46ECF109208061092090610920A0610920B0665CF80911E06C1
:2023400090911F06009709F44FCF80911E0690911F069E01281B390B309318062093170633
:20236000809117069091180697FD36C08091170690911806880F991F880F991F909318061A
:202380008093170610921F0610921E060E943A2F60931A0670931B0680931C0690931D06C3
:2023A00080911706909118063FE0813A930708F41BCF10921A0610921B0610921C0610926B
:2023C0001D0612CFD0930D06C0930C061CCFD0931F06C0931E0608CF8091170690911806F0
:2023E000909581959F4F9093180680931706BECF80910E0690910F06909581959F4F90930F
:202400000F0680930E0629CF8091050690910606909581959F4F909306068093050662CF98
:20242000FC01DB0111962C91119730E040E050E0542F432F322F222712966C91129770E01A
:2024400080E090E0CB0177276627262B372B482B592B6C9170E080E090E0262B372B482BC8
:20246000592B13966C91139770E080E090E0962F882777276627262B372B482B592B208778
:2024800031874287538715962C91159730E040E050E0542F432F322F222716966C91169778
:2024A00070E080E090E0CB0177276627262B372B482B592B14966C91149770E080E090E0E9
:2024C000262B372B482B592B17968C9190E0A0E0B0E0B82FAA2799278827282B392B4A2BB5
:2024E0005B2B248735874687578720893189CF010696F901099508952F923F924F925F92DC
:202500006F927F928F929F92AF92BF92CF92DF92EF92FF920F931F93DF93CF93CDB7DEB7A0
:20252000A2970FB6F894DEBF0FBECDBF6C010E943A2F1B012C01960123533E4F3C8B2B8B43
:20254000F90180819181A281B381A2019101281B390B4A0B5B0BDA01C901893F3AE293077D
:2025600030E0A30730E0B30720F0D6011C961C921C974DEBE42E41E0F42EEC0CFD1CF70147
:2025800080819181009769F0F601EF52FE4F80819181A281B38182159305A405B50508F4BB
:2025A0005BC18601F80182819381DC01ED91FC910680F781E02D099597FD78C0F801EB53D4
:2025C000FE4F20813181280F391F31832083D7014D915C91119746305105E9F141155105D8
:2025E000A9F48F3F9105F1F681E090E0D7018D939C93F801EF52FE4FD201C1014496A11D47
:20260000B11D80839183A283B383CCCF4130510509F443C04230510509F4FFC043305105CB
:2026200009F409C14430510509F41CC14530510509F42FC14730510509F0B4CFC90160E024
:2026400071E00E941E308F3F910509F43AC1F70111821082A7CFD801AD53BE4F2D913C91D9
:202660001197F801E20FF31FEF51FF4F80832F5F3F4F11963C932E93F801E154FE4F808156
:202680009181019791838083009709F08BCF87E090E0F7019183808385CF8F3F910509F4F4
:2026A000F2C0D70111961C921E927CCF6801D8011C968C911C97882309F496C049EC642EB7
:2026C00041E0742E600E711EF30180819181A281B381A2019101281B390B4A0B5B0BDA018A
:2026E000C901853C39E0930730E0A30730E0B30708F47AC081EF92E09A8789871B861C868C
:202700001D861E861F86188A198A1A8A38E0E32EF12CE00EF11EB8016D5E7F4FE091F102EB
:20272000F091F202CE01099609952FEFD8011D962C931D971E962C931E972AE01F962C9355
:202740001F9750961C92509751968C93519752961C925297BC016B5F7F4F623071050CF47E
:2027600018C540E050E022E030E0F701E20FF31FE5814E0F511D2F5F3F4F62177307ACF73C
:20278000F601E80FF91F4095438B27E0A22EB12CA80EB91EF601828493841A141B04B4F446
:2027A00000E010E0D4018D919C91DC01ED91FC91D701A00FB11F0190F081E02D15966C9133
:2027C00009950F5F1F4F0A151B0564F30E943A2FF601EB52FF4F6083718382839383F30176
:2027E0002082318242825382A2960FB6F894DEBF0FBECDBFCF91DF911F910F91FF90EF903E
:20280000DF90CF90BF90AF909F908F907F906F905F904F903F902F900895D801AF53BE4F1F
:202820008D939C9323E030E0D70111963C932E9391838083B7CEF801EF53FE4F982F88278D
:2028400020813181820F931F9183808384E090E0F70191838083A6CED70111961C921E9297
:202860008601A0CEF801E154FE4F91838083F801ED53FE4F1182108285E090E0D7011196D2
:202880009C938E938FCE82E090E0F7019183808389CE982F8827F801E154FE4F208131810F
:2028A000820F931F9183808326E030E0F70131832083009709F076CE87E090E09183808397
:2028C00071CEF801EF53FE4F80819181009711F18A30910509F4C6C18430910509F4B1C2F7
:2028E00084569040880F991F800F911F8D549E4FDC018D919C911197009709F4A8CEDC011B
:20290000ED91FC91B8016F517F4F0190F081E02D09959DCE81EF92E09A8789871B861C86F7
:202920001D861E861F86188A198A1A8A98E0A92EB12CA00EB11ED8011C968C911C97882313
:2029400009F03CC10E943A2FF801EB52FF4F608371838283938381E0F801848787EE92E0B4
:202960009A83898380E090E03C014801FE8AED8AF301EE0FFF1FE80DF91DE755FE4F0190A5
:20298000F081E02D3097C1F0848195819C838B83808191819E838D8382819381DC01ED9143
:2029A000FC910480F581E02D099598878F83F4018485882309F0A5C00894611C711CB5E072
:2029C0006B167104ACF280E090E03C01F301EE0FFF1FE80DF91DED54FE4FA081B1811097B4
:2029E000D1F012968D919C9113979C838B8314968D919C9115979E838D83ED91FC911197C7
:202A00000480F581E02DCD01099598878F83F40184858823C1F40894611C711CB5E06B16F8
:202A20007104A4F28401ED88FE88F401E753FE4F2082318242825382EB89FC892082318253
:202A40004282538204CEE981FA81B4016D5E7F4F0190F081E02DCE0101960995BC018FEF8A
:202A6000D4011D968C931D971E968C931E9781E01F968C931F9750961C92509751966C9327
:202A8000519752961C925297AB014B5F5F4F423051050CF48BC320E030E082E090E0F501DD
:202AA000E80FF91FE5812E0F311D019648175907B4F7F401E60FF71F2095238BE7E0EE2ECF
:202AC000F12CE60EF71EF401C284D3841E141F040CF0A1CF00E010E0D6018D919C91DC01AE
:202AE000ED91FC91D501A00FB11F0190F081E02D15966C9109950F5F1F4F0E151F0564F3A7
:202B00008ACFE981FA81B4016D5E7F4F0190F081E02DCE0101960995BC018FEFD4011D9653
:202B20008C931D971E968C931E971F961C921F9750961C92509751966C93519752961C9242
:202B40005297AB014B5F5F4F423051050CF428C320E030E082E090E0F501E80FF91FE58188
:202B60002E0F311D019648175907B4F7F401E60FF71F2095238BB7E0EB2EF12CE60EF71E90
:202B8000F401C284D3841E141F040CF015CF00E010E0D6018D919C91DC01ED91FC91D501BE
:202BA000A00FB11F0190F081E02D15966C9109950F5F1F4F0E151F0564F3FECEB8016D5E77
:202BC0007F4FE091F102F091F202CE0109960995BC018FEFF801858786878AE08787108AE3
:202BE000618B128AAB014B5F5F4F423051050CF4DAC220E030E082E090E0F501E80FF91FFE
:202C0000E5812E0F311D019648175907B4F7F801E60FF71F2095238B87E0882E912C860EED
:202C2000971ED8011A966D907C901B97181419040CF088CECC24DD24F30180819181DC012B
:202C4000ED91FC91D501AC0DBD1D0190F081E02D15966C9109950894C11CD11CC814D9048C
:202C60005CF370CE0E943A2F9B01AC01F801EB52FF4F80819181A281B381281B390B4A0BA9
:202C80005B0BF801EE51FF4FA080BB24CC24DD24DC2CCB2CBA2CAA24F801ED51FF4F80811F
:202CA00090E0A0E0B0E0DC0199278827A82AB92ACA2ADB2AF801EF51FF4F808190E0A0E022
:202CC000B0E0A82AB92ACA2ADB2AF801EC51FF4F808190E0A0E0B0E0B82FAA27992788278A
:202CE000A82AB92ACA2ADB2AF801EA51FF4F808190E0A0E0B0E06624782E892E9A2EF8017B
:202D0000E951FF4F808190E0A0E0B0E0DC0199278827682A792A8A2A9B2AF801EB51FF4F2D
:202D2000808190E0A0E0B0E0682A792A8A2A9B2AF801E851FF4F808190E0A0E0B0E0B82F7C
:202D4000AA2799278827682A792A8A2A9B2A2AA338A349A35F8F0E943A2F6F8B788F898FDF
:202D60009A8FC80187529F4F9E8B8D8B0894A108B108C108D1082AA138A149A15F8DCA0174
:202D8000B90128EE33E040E050E00E9431306B8F7C8F8D8F9E8FA20EB31EC41ED51E6F8961
:202DA000788D898D9A8D28EE33E040E050E00E9431306F8B788F898F9A8FA21AB30AC40ACC
:202DC000D50AAD89BE89AD92BD92CD92DC921397ADEDCA2ED12CC00ED11E20E03AEC4AE9ED
:202DE0005BE3620E731E841E951E6B8D7C8D8D8D9E8D20E432E44FE050E00E94FF2F660E3C
:202E0000771E881E991E6F89788D898D9A8D0E94FF2F661A770A880A990AD6016D927D929B
:202E20008D929C9213978D899E89B6010E942E260E943A2FEB89FC896083718382839383BB
:202E400006CCF6ED8F2EF1E09F2E800E911EE1EECE2ED12CC00ED11ED6012C9178ED672E12
:202E600071E0772E600E711EF30180818217B0F46DEDA62E61E0B62EA00EB11E622F70E07C
:202E8000660F771F660F771FD5018D919C912AA30E94D731F501808391832AA1D3012C9319
:202EA000222309F479C160E044E0A42EB12C33E0632E712C680C791CC801062FB5015C0128
:202EC000F601E60FF71F818190E0A0E0B0E0BA2FA92F982F8827228130E040E050E0A9018A
:202EE00033272227822B932BA42BB52B208130E040E050E0822B932BA42BB52B238130E046
:202F000040E050E0522F442733272227822B932BA42BB52BF40183839483A583B6836C5F7A
:202F20007F4F802F90E0880F991F880F991F0780F085E02DE80FF91FD3012D913D914D91B0
:202F40005C91139720833183428353830F5FF4018281081708F4B4CF85015B01F801EA0D12
:202F6000FB1DEF51FF4F4081980121523E4FD9018C918417D8F464EE662E61E0762E600EBA
:202F8000711E642F70E0660F771F660F771FF301808191812AA338A349A30E94D731D30190
:202FA0008C9311969C9349A138A12AA1E4E0F0E0AE0EBF1ED9014C93442309F458C060E0EC
:202FC0003AE0632E712C680C791CC80185015C01F601E00FF11F818190E0A0E0B0E0BA2F93
:202FE000A92F982F8827228130E040E050E0A90133272227822B932BA42BB52B208130E068
:2030000040E050E0822B932BA42BB52B238130E040E050E0522F442733272227822B932B48
:20302000A42BB52BF40182879387A487B5870C5F1F4F862F90E0880F991F880F991F06843C
:20304000F785E02DE80FF91FD3012D913D914D915C91139720833183428353836F5FF4014E
:203060008185681708F4B4CFC50158018C01F801EA0DFB1DEF51FF4F408198012A513E4FA8
:20308000D9018C918417D0F4F9EE6F2EF1E07F2E600E711E642F70E0660F771FF3018081F8
:2030A00091812AA338A349A30E94D731D3018C9311969C93119749A138A12AA1F901408304
:2030C000442309F460C0C5010496662494012F5E3F4F3E8B2D8BBC01188F0F8B5701F60104
:2030E000E60FF71FE080F180028113816C5F7F4F9B01442737FD4095542F2E0D3F1D401FBB
:20310000511FCB01A0E0B0E082179307A407B50790F4FB01D601AE0FBF1FCD0101977C9065
:20312000DC017C923196CF01A0E0B0E082179307A407B50778F3E60EF71EF601EE0DFF1DE1
:2031400031971082615070406C0D7D1DF401728B618B862D90E0880F991F0388F489E02D3C
:20316000E80FF91FAD89BE898D919C911197918380836394F4018089681610F4B701AFCF0C
:203180000F89188D7501F801EB52FE4F81E080835ECA40E050E0F4CA74E0A72EB12CDECEAD
:2031A00020E030E0E3CC20E030E031CD20E030E080CC2F923F924F925F926F927F928F924F
:2031C0009F92AF92BF92CF92DF92EF92FF920F931F930E943A2F2091080630910906409189
:2031E0000A0650910B06621B730B840B950B693C71058105910590F080E01F910F91FF90AD
:20320000EF90DF90CF90BF90AF909F908F907F906F905F904F903F902F9008950E943A2F73
:2032200020911106309112064091130650911406621B730B840B950B693C710581059105A7
:20324000D8F60E943A2F20911A0630911B0640911C0650911D06621B730B840B950B693C1C
:2032600071058105910540F6809117069091180625E08431920708F0BFCF60910506709143
:203280000606E090CA02F090CB020091CC021091CD022090CE023090CF024090D002509037
:2032A000D10280E090E00E946506A80197010E943303A20191010E945704D62EC72EB82E34
:2032C000A92E662E772E882E992E2DEC3CEC4CE45EE30E945C0587FFCAC06D2D7C2D8B2DA1
:2032E0009A2D2DEC3CEC4CE45EEB0E94020518160CF0BDC00F2EF0E06F2EF0E07F2EF0E006
:203300008F2EF0E89F2EF02D60910E0670910F0680E090E00E946506A80197010E9433031D
:20332000A20191010E945704F62E072F182FB92E2DEC3CEC4CE45EE30E945C0587FF10C0C8
:203340006F2D702F812F9B2D2DEC3CEC4CE45EEB0E940205181624F4FF2400E010E0BB243F
:20336000C401B3012F2D302F412F5B2D0E940A03E62ED72EC82EA92EC401B3012F2D302F58
:20338000412F5B2D0E943303162F072FF82EB92E962E672E882E792E6E2D7D2D8C2D9A2D5A
:2033A00020E030E040E85FE30E94020518160CF46BC06E2D7D2D8C2D9A2D20E030E040E894
:2033C0005FEB0E945C05582E551C5524551CA801652F702F8F2D9B2D20E030E040E85FE3E5
:2033E0000E94020518160CF447C0A801652F702F8F2D9B2D20E030E040E85FEB0E945C050A
:20340000881F8827881F552031F0EE24DD24E0E8CE2E7FEBA72E882331F09924662460E8A8
:20342000862E5FEB752E8E2D9D2DAC2DBA2D8093A7059093A805A093A905B093AA05892D8E
:20344000962DA82DB72D8093AB059093AC05A093AD05B093AE050E943A2F6093AF057093C9
:20346000B0058093B1059093B20581E0C6CE97FA909497F8909448CF80E099246624A0E851
:203480008A2EFFE37F2EBFCF5524EE24DD2480E8C82EBFE3AB2E9BCFF89483E061E00E94B6
:2034A0003E2E8BE061E00E943E2E8DE061E00E943E2E85E061E00E943E2E8DE061E00E9426
:2034C0008A2E85E061E00E948A2E87E061E00E943E2E1092900083E08093910081E06FED88
:2034E00070E141E050E00E94B82C82E06FED70E141E050E00E94B82C83E06FED70E141E08D
:2035000050E00E94B82C80E061E00E948A2E82E061E00E948A2E81E061E00E948A2E8AE097
:2035200061E00E943E2E89E061E00E943E2E82EA809380008BE18093810087E893E190937F
:2035400087008093860060918E0370918F0380918C0390918D030E946F271092480510921C
:20356000470510924A051092490510924E0510924D0510924C0510924B058FEC95E090933D
:203580003E0580933D0584E690E09093D2058093D1058FEE95E09093400580933F0585E6BA
:2035A00090E09093F2058093F1058AEF95E0909342058093410586E690E09093FD058093B3
:2035C000FC0581EE95E0909344058093430587E690E09093E4058093E30584E090E0909364
:2035E00052058093510580E090E0FC01EE0FFF1FED5CFA4F208131812115310531F001961A
:203600008530910594F37894089523E935E03183208387599F4F909398058093970582E90F
:2036200093E090939A0580939905789408952F923F924F925F926F927F928F929F92AF92F2
:20364000BF92CF92DF92EF92FF920F931F93DF93CF93CDB7DEB7A0970FB6F894DEBF0FBE02
:20366000CDBF0E943A2F4B015C018091570590915805A0915905B0915A05A5019401281B72
:20368000390B4A0B5B0BDA01C901893F3AE2930730E0A30730E0B30710F010929603809138
:2036A000470590914805009771F080915B0590915C05A0915D05B0915E0588159905AA0544
:2036C000BB0508F47CC00CE813E080918C0390918D03DC01ED91FC910680F781E02D099529
:2036E00097FD9DC020914F0530915005280F391F3093500520934F054091470550914805C5
:203700004630510509F460C041155105B9F48F3F9105C9F681E090E09093480580934705A4
:20372000D501C4014496A11DB11D80935B0590935C05A0935D05B0935E05C5CF41305105FB
:2037400009F463C04230510509F445C14330510509F450C14430510509F430C24530510523
:2037600009F4BDC44730510509F0ADCFC90160E071E00E941E308F3F910509F580914B057B
:2037800090914C05009709F41AC58A30910509F47BC68430910509F4AFC7880F991F8B58C7
:2037A0009B4FFC0180819181009749F0DC01ED91FC910190F081E02D6BE674E00995109263
:2037C0004805109247057FCF20914D0530914E05F901E559FB4F80832F5F3F4F30934E0592
:2037E00020934D058091490590914A05019790934A0580934905009709F065CF87E090E0EF
:2038000090934805809347055ECF8F3F9105B9F682E090E0909348058093470554CF8091C4
:2038200096038823C9F08091530590915405A0915505B0915605A5019401281B390B4A0B6A
:203840005B0BDA01C901853C39E0930730E0A30730E0B30708F037C180E296E09093C005B5
:203860008093BF050E943A2F2091A3053091A4054091A5055091A605621B730B840B950B72
:203880002091C3023091C40240E050E0261737074807590730F08BE995E09093C0058093AD
:2038A000BF0587DC882331F087EA95E09093C0058093BF050E943A2F209150063091510646
:2038C0004091520650915306621B730B840B950B643171058105910508F07FC10E943A2FF1
:2038E00020914C0630914D0640914E0650914F06621B730B840B950B653071058105910505
:2039000008F05BC30E943A2F20913706309138064091390650913A06621B730B840B950B3E
:20392000643671058105910508F029C20E943A2F603DB7E07B07B0E08B07B0E09B0708F06B
:203940006CC083E061E00E948A2E8BE061E00E948A2E0E943A2F20912D0630912E06409182
:203960002F0650913006621B730B840B950B643FF1E07F07F0E08F07F0E09F0798F00E94D1
:203980003A2F60932D0670932E0680932F069093300660912C0681E0682760932C0687E021
:2039A0000E948A2EA0960FB6F894DEBF0FBECDBFCF91DF911F910F91FF90EF90DF90CF9034
:2039C000BF90AF909F908F907F906F905F904F903F902F90089590934C0580934B0523E02A
:2039E00030E030934805209347059093500580934F0569CE982F882720914B0530914C0509
:203A0000820F931F90934C0580934B0584E090E0909348058093470556CE0E943A2F209109
:203A20003306309134064091350650913606621B730B840B950B603571058105910508F4DC
:203A400088CF0E943A2F6093330670933406809335069093360600913106109132060F5FDF
:203A60001F4F10933206009331060031110530F0109232061092310600E010E060917B05D8
:203A800070917C0580917D0590917E0520E030E040E551E40E945C0587FD49C38091BF059B
:203AA0009091C005E5E0873A9E0709F4E6C480919603882309F066C3009131061091320636
:203AC000E2E0F0E036C381EF92E09A8789871B861C861D861E861F86188A198A1A8AE091BF
:203AE000F102F091F202CE010996B8016F5E7F4F09952FEFD8011B962C931B971C962C9374
:203B00001C972AE01D962C931D971E961C921E971F968C931F9750961C925097BC016B5F1F
:203B20007F4F623071050CF446C740E050E022E030E0F901E657FC4FE5854E0F511D2F5FFB
:203B40003F4F62177307ACF7FC01E057FC4F4095458747E0E42EF12CE80EF91EC0909403D7
:203B6000D09095031E141F04B4F400E010E0F60180819181DC01ED91FC91D801A657BC4FAD
:203B80000190F081E02D1D966C9109950F5F1F4F0E151F0564F30E943A2F60935F047093EA
:203BA000600480936104909362048092530590925405A0925505B09256054ECE90934A0504
:203BC0008093490510924E0510924D0585E090E0909348058093470576CD0E943A2F6093B6
:203BE0005006709351068093520690935306E091BF05F091C005FC8BEB8B2090CA05309077
:203C0000CB054090CC055090CD056481758186819781A20191010E9433034B01782E692EF1
:203C2000E090C502F090C6020091C7021091C8029301792D832F922FA80197010E940205A9
:203C400018161CF44701702E612E57016801D7FAD094D7F8D094C601B501A72DB62D9401BF
:203C6000AD010E94020518161CF445017C2C6D2CC201B101F301282D392D4F2F562D0E9461
:203C80000A03262E572E482E392E862F952DA42DB32D8093CA059093CB05A093CC05B0931D
:203CA000CD056090C3057090C4058090C5059090C605AB89BC896D917D918D919C91A40177
:203CC00093010E9433036B8B7F8B8B8F9C8FC801B701EB89FF89AB8DBC8D9F01AD010E9445
:203CE0005C0587FF15C2C601B501A80197010E94020518160CF009C2C401B301A6019501F4
:203D00000E940A03A62EC72EE82E092F862F9C2DAE2DB02F8093C3059093C405A093C505E1
:203D2000B093C605622D752D842D932D20E030E048EF52E40E94600320E030E04BEB53E4D4
:203D40000E940A030E94980170938900609388006A2D7C2D8E2D902F20E030E048EF52E43B
:203D60000E94600320E030E04BEB53E40E940A030E94980170938B0060938A00AFCD0E94AE
:203D80003A2F60933706709338068093390690933A0660913B0670E0882777FD8095982F13
:203DA0000E94B6057B018C0160913C0670913D0680913E0690913F06A80197010E9457042D
:203DC0002AEB37E64DE552E40E94570460937B0570937C0580937D0590937E0560914806DB
:203DE0007091490680914A0690914B06A80197010E9457042EE236E544E551E40E945704DC
:203E000060937F05709380058093810590938205609144067091450680914606909147060E
:203E2000A80197010E9457042EE236E544E551E40E9457046093830570938405809385051A
:203E40009093860560914006709141068091420690914306A80197010E94570424E237E90E
:203E60004FE750E40E945704A62EC72EE82E092F862F9C2DAE2DB02F80938705909388053D
:203E8000A0938905B0938A0580E090E0DC018093440690934506A0934606B09347068093F5
:203EA000480690934906A0934A06B0934B068093400690934106A0934206B093430680934E
:203EC0003C0690933D06A0933E06B0933F0610923B066A2D7C2D8E2D902F20E030E04CE55D
:203EE00052E40E942F0587FD53C080918B05882309F04EC081E080938B0510928C050E94F3
:203F00003A2F20911A0630911B0640911C0650911D06621B730B840B950B693C71058105C3
:203F2000910508F4FEC08091BF059091C005B5E0873A9B0709F4CDC1809117069091180686
:203F40009093920580939105809105069091060690938E0580938D0580910E0690910F06FF
:203F60009093900580938F058091990590919A05DC01ED91FC91609197057091980540918F
:203F80009505509196050190F081E02D0995CECC6A2D7C2D8E2D902F20E030E044E352E49D
:203FA0000E94890518160CF4A8CF80918B05882309F4A3CF10928B05A0CF0E943A2F6093D2
:203FC0004C0670934D0680934E0690934F0680913B068F5F80933B0685E10E94AF2DFC01E5
:203FE000BF01882777FD8095982F0E94B6059B01AC01609148067091490680914A0690914B
:204000004B060E940A03609348067093490680934A0690934B0686E10E94AF2D9C01B901FA
:20402000882777FD8095982F0E94B6059B01AC016091440670914506809146069091470689
:204040000E940A036093440670934506809346069093470687E10E94AF2DAC01BA0188275A
:2040600077FD8095982F0E94B6059B01AC0160913C0670913D0680913E0690913F060E9476
:204080000A0360933C0670933D0680933E0690933F0684E10E94AF2DDC01BD01882777FD38
:2040A0008095982F0E94B6052AE037ED43EA52E40E9433039B01AC01609140067091410696
:2040C00080914206909143060E940A036093400670934106809342069093430613CC982F7E
:2040E00088272091490530914A05820F931F90934A058093490526E030E030934805209313
:204100004705009709F0DFCA79CB57016801F4CD3B892F899B8D8C8DE32EF22E092F182FE7
:20412000E2CD80918C05816080938C05FCCEE0E0F0E0EE0FFF1FE954FD4FE080F18081E079
:2041400090E002C0880F991F0A95E2F78E219F2161E0009709F460E083E00E948A2E81E0C4
:2041600090E00090310602C0880F991F0A94E2F78E219F2161E0009709F460E08BE00E94EF
:204180008A2EE7CB0E943A2F9B01AC018091750590917605A0917705B091780580559B4F10
:2041A000AF4FBF4F82179307A407B50708F044C10091310610913206E3E0F0E0BACF81EF2F
:2041C00092E09A8789871B861C861D861E861F86188A198A1A8A80919603882309F02FC2E5
:2041E0000E943A2F60935F0470936004809361049093620481E08093960387EE92E09A83E5
:20420000898366247724F301EE0FFF1FED5CFA4F0190F081E02D3097C1F0848195819C830B
:204220008B83808191819E838D8382819381DC01ED91FC910480F581E02D099598878F8357
:2042400080919603882309F0A1C00894611C711CB5E06B167104BCF266247724F301EE0FBA
:20426000FF1FE35CFA4FA081B1811097D1F012968D919C9113979C838B8314968D919C911E
:2042800015979E838D83ED91FC9111970480F581E02DCD01099598878F8380919603882395
:2042A000F1F40894611C711CB5E06B167104B4F28092530590925405A0925505B092560534
:2042C0008092570590925805A0925905B0925A0576CA80918C05826080938C052DCEE981F3
:2042E000FA810190F081E02DCE0101966DE973E00995BC018FEF809397038093980381E090
:204300008093990310929A0360939B0310929C03AB014B5F5F4F423051050CF452C320E0FC
:2043200030E082E090E0FC01E657FC4FE5852E0F311D019648175907B4F7FB01E057FC4FA2
:2043400020952587E7E0EE2EF12CE60EF71EC0909403D09095031E141F040CF0A2CF00E072
:2043600010E0F60180819181DC01ED91FC91D801A657BC4F0190F081E02D1D966C9109951D
:204380000F5F1F4F0E151F0564F38BCFE981FA810190F081E02DCE0101966DE973E00995A8
:2043A000BC018FEF80939703809398031092990310929A0360939B0310929C03AB014B5FC2
:2043C0005F4F423051050CF402C320E030E082E090E0FC01E657FC4FE5852E0F311D0196AF
:2043E00048175907B4F7FB01E057FC4F20952587B7E0EB2EF12CE60EF71EC0909403D09057
:2044000095031E141F040CF020CF00E010E0F60180819181DC01ED91FC91D801A657BC4F21
:204420000190F081E02D1D966C9109950F5F1F4F0E151F0564F309CF0E943A2F2091A30569
:204440003091A4054091A5055091A605621B730B840B950B2091C3023091C40240E050E074
:20446000261737074807590708F43FC10091310610913206E5E0F0E05CCE0091310610914D
:204480003206E1E0F0E055CE0E943A2F9B01AC0180915F0490916004A0916104B0916204A6
:2044A000281B390B4A0B5B0BE0906C04FF2400E010E0102F0F2DFE2CEE2480916D0490E03E
:2044C000A0E0B0E0DC0199278827E82AF92A0A2B1B2B80916B0490E0A0E0B0E0E82AF92A9B
:2044E0000A2B1B2B80916E0490E0A0E0B0E0B82FAA2799278827E82AF92A0A2B1B2B409097
:204500007004552466247724762C652C542C44248091710490E0A0E0B0E0DC01992788271C
:20452000482A592A6A2A7B2A80916F0490E0A0E0B0E0482A592A6A2A7B2A8091720490E024
:20454000A0E0B0E0B82FAA2799278827482A592A6A2A7B2A2D8F3E8F4F8F58A30E943A2F89
:204560006B8B7C8B8D8B9E8B0894E108F108010911092D8D3E8D4F8D58A1CA01B90128EE66
:2045800033E040E050E00E9431306F8B788F898F9A8FE20EF31E041F151F6B897C898D890C
:2045A0009E8928EE33E040E050E00E9431306B8B7C8B8D8B9E8BE21AF30A040B150BE09280
:2045C0006304F0926404009365041093660420E03AEC4AE95BE3420E531E641E751E6F891C
:2045E000788D898D9A8D20E432E44FE050E00E94FF2F460E571E681E791E6B897C898D893B
:204600009E890E94FF2F461A570A680A790A40926704509268046092690470926A0483E62A
:2046200094E067E674E01AD30E943A2F60935705709358058093590590935A05C0C8E091D2
:20464000F102F091F202CE0109966DE973E009952FEF20939703209398032AE0209399032B
:2046600010929A0380939B0310929C03BC016B5F7F4F623071050CF4A7C140E050E022E0F2
:2046800030E0F901E657FC4FE5854E0F511D2F5F3F4F62177307ACF7FC01E057FC4F40954D
:2046A000458707E0E02EF12CE80EF91EC0909403D09095031E141F040CF092CD00E010E0B0
:2046C000F60180819181DC01ED91FC91D801A657BC4F0190F081E02D1D966C9109950F5F3C
:2046E0001F4F0E151F0564F37BCD0091310610913206E4E0F0E01DCD00916B0480916205CF
:20470000801780F4602F70E0660F771F660F771F80916705909168050E94D7318093670565
:204720009093680500936205002309F447C1EE2404E010E0B80166577C4FFB01EE51FF4F17
:20474000808190E0A0E0B0E0BA2FA92F982F8827FB01ED51FF4F208130E040E050E0A9016E
:2047600033272227822B932BA42BB52BFB01EF51FF4F208130E040E050E0822B932BA42BB7
:20478000B52B6C517F4FFB01208130E040E050E0522F442733272227822B932BA42BB52B08
:2047A0008093630590936405A0936505B09366050C5F1F4F2E2D30E0220F331F220F331F5D
:2047C000E0916705F0916805E20FF31F80839183A283B383E39480916205E81608F4AACF37
:2047E000F801E559FB4FE080809169058E1580F46E2D70E0660F771F660F771F80916E05BD
:2048000090916F050E94D73180936E0590936F050C5F1F4FE0926905EE2009F457C0EE244F
:20482000B80166577C4FFB01EE51FF4F808190E0A0E0B0E0BA2FA92F982F8827FB01ED51BC
:20484000FF4F208130E040E050E0A90133272227822B932BA42BB52BFB01EF51FF4F208177
:2048600030E040E050E0822B932BA42BB52B6C517F4FFB01208130E040E050E0522F44274A
:2048800033272227822B932BA42BB52B80936A0590936B05A0936C05B0936D050C5F1F4F14
:2048A0002E2D30E0220F331F220F331FE0916E05F0916F05E20FF31F80839183A283B38339
:2048C000E39480916905E81608F4AACFF801E559FB4FE080809170058E1570F46E2D70E016
:2048E000660F771F80917305909174050E94D7318093730590937405E0927005EE2009F4C7
:2049000055C00C5F1F4F7724B801FB01E559FB4FE080F180028113816C5F7F4F9B01442749
:2049200037FD4095542F2E0D3F1D401F511FCB01A0E0B0E082179307A407B507B8F4FB0167
:20494000AAE6CA2EA4E0DA2ECE0EDF1ECF0185599B4FDC018C91D6018C933196CF01A0E0CB
:20496000B0E082179307A407B50750F39B012E0D3F1DF901E659FB4F108266597B4F7093F6
:20498000720560937105872D90E0880F991FE0917305F0917405E80FF91F718360837394F4
:2049A00080917005781610F4B901AFCF81E080935F050C94DF1B40E050E0C6C804E010E083
:2049C0000FCF20E030E0B9CC40E050E065CE20E030E009CD81EE92E090938B0380938A03C9
:2049E00088E996E090938D0380938C0380E091EEA0E0B0E080938E0390938F03A09390036D
:204A0000B09391038BEF92E090939303809392038CE893E0909395038093940310929603EB
:204A200081E093E0909361058093600587E293E090937A058093790582E791E090939405FC
:204A40008093930589E795E0909396058093950580E090E0DC0180939B0590939C05A09304
:204A60009D05B0939E0580939F059093A005A093A105B093A2051092A3051092A405109235
:204A8000A5051092A6058093A7059093A805A093A905B093AA058093AB059093AC05A093F3
:204AA000AD05B093AE051092AF051092B0051092B1051092B2058093B3059093B405A09316
:204AC000B505B093B6058093B7059093B805A093B905B093BA051092BB051092BC05109215
:204AE000BD051092BE058093200690932106A0932206B09323068093240690932506A09387
:204B00002606B0932706109228061092290610922A0610922B061092C2051092C1058093CF
:204B2000C3059093C405A093C505B093C6051092C9051092C8058093CA059093CB05A093CF
:204B4000CC05B093CD0581E393E09093D0058093CF058BE393E09093D6058093D50589E77D
:204B600091E09093D4058093D3058CE490E19093E0058093DF0585E493E09093E205809304
:204B8000E1058FE493E09093E8058093E70583E891E09093E6058093E5058CE39CE0909345
:204BA000EE058093ED0529E533E03093F0052093EF0583E693E09093F6058093F50543E94A
:204BC00051E05093F4054093F30542ED5CE05093F9054093F8053093FB052093FA05909349
:204BE0000106809300068CE991E09093FF058093FE0587EE9FE09093040680930306109293
:204C00000606109205061092070610920D0610920C068091070660E00E943E2E10920F06A0
:204C200010920E0682E08093100610921606109215068091100660E00E943E2E1092180683
:204C40001092170681E08093190610921F0610921E068091190660E00C943E2ECF92DF9227
:204C6000EF92FF920F931F93CF93DF93EC016B01FB01608171818281938120E03AEC4AE962
:204C80005BE30E9431307B018C0188819981AA81BB81820F931FA41FB51F88839983AA8312
:204CA000BB83F601E082F18202831383DF91CF911F910F91FF90EF90DF90CF900895209185
:204CC0009406309195068091960690919706281B390B2F733070C901089520919406309137
:204CE000950680919606909197062817390751F0E0919606F0919706EC5AF94F208130E084
:204D0000C90108952FEF3FEFC90108952091940630919506809196069091970628173907E8
:204D2000A9F0E0919606F0919706EC5AF94F2081809196069091970601968F739070909359
:204D400097068093960630E0C90108952FEF3FEFC90108950F931F93DF93CF930F92CDB790
:204D6000DEB78C0169838091D902882371F481E090E0F8019383828320E030E0C9010F90CB
:204D8000CF91DF911F910F91089583E0BE016F5F7F4F41E050E00AD11816190644F79C0147
:204DA000C9010F90CF91DF911F910F91089583E0CDC3CF93DF93C0919406D0919506219668
:204DC000CF73D0708091960690919706C817D907D1F41FC0E0919406F0919506EC5AF94FCE
:204DE0008083D0939506C0939406C0919406D09195062196CF73D07080919606909197063A
:204E00008C179D0731F082E097D02FEF8F3F920709F7DF91CF910895FC0180818E5F808381
:204E200080E86CEA70E042E450E068C1FC0191818081813A41F0813221F49032B1F19232F9
:204E400061F080E008959132E1F780E062ED72E047E050E053D181E0089582818093D902FE
:204E60008091D2029091D302A091D402B091D502803B24E0920720E0A20720E0B20711F07D
:204E800081E008958091D90280FF16C088E10FB6F89480936000109260000FBEA8951092F8
:204EA00001081092000881E0089582ED92E067E070E072D181E0089587E797E79093010870
:204EC000809300082BE088E190E00FB6F894A895809360000FBE2093600081E00895089557
:204EE00010929B0610929A0688EE93E0A0E0B0E080939C0690939D06A0939E06B0939F06FA
:204F00008DE693E0909399068093980608950E94A92F8EEA96E095D30E944C1A0E94171BEF
:204F200080E090E0009729F00E9400000E94171BFBCF0E94171BFDCFDF93CF930F92CDB718
:204F4000DEB79091A806992351F12FB7F89487708093E9008091F20090E01816190614F4C2
:204F600081E090E0009739F0289834E63093A7063091F1003983009739F03091F20033231F
:204F800019F43BE63093E8002FBF8130910539F4298130E0C9010F90CF91DF9108952FEF28
:204FA0003FEFC9010F90CF91DF910895CF92DF92EF92FF920F931F93DF93CF9300D000D041
:204FC000CDB7DEB7282F8091A806882309F44DC04115510509F43EC0C62ED72E322F377045
:204FE0008A018AEFF82E8FB7F8943093E9009091E80095FF34C09091F20070E4791B8FBF2F
:20500000772389F1872F90E0081719071CF4702F802F90E0081B190B6FB7F8943093E900A4
:20502000922F25FF38C0772351F0872F815001C0872F1092F100782F71508823C9F7809143
:20504000E80085FD22C08AE38093E8006FBF0115110549F65D9884E68093A60608C070E0CD
:205060008FBF772379F6FA94D9F54FEF5FEFCA010F900F900F900F90CF91DF911F910F918A
:20508000FF90EF90DF90CF90089501151105F1F696FFDCCFD8CF27FD10C0772381F2872FE6
:2050A000815001C0872FF60171916F017093F100782F71508823B1F7C2CF772309F4BFCFDA
:2050C000872F815001C0872FF6010894C11CD11CE491E093F100782F71508823A1F7AFCF73
:2050E00061E070E080E090E02A8339834B835C83CFD62A8139814B815C81A9CFCF93DF933A
:205100004115510509F445C0A62FB72FBA01615070402091A9063091AA06C091AB06D091D6
:20512000AC0687FD11C0ED912C173D079CF02F5F3F4F3093AA062093A9066115710529F1E0
:205140006150704087FFEFCFFD011196E4912C173D076CF79091E8009570E1F39091E800BB
:2051600092FD11C0E093F1002091A9063091AA062F5F3F4FF901EF73F0703097D1F69EEFA7
:205180009093E800D6CF4FEF5FEFCA01DF91CF91089540E050E0F9CF2091E80022FFFCCFFE
:2051A000662369F0E82FF92F862F815001C0892F9091F1009193982F91508823C1F72898CE
:2051C00084E68093A7068BEF8093E800CB0108951F920F920FB60F921124EF92FF920F9326
:2051E0001F932F933F934F935F936F937F938F939F93AF93BF93EF93FF93DF93CF93CDB72D
:20520000DEB76397DEBFCDBF1092E9008091E80083FF37C0CE010296FC0127E001C0232F5B
:205220003091F1003193322F31502223C1F7289824E62093A70622EF2093E8002A8127FD74
:205240003AC03EEF3093E80030E0A9014076507041155105C9F1288539851092E90010924E
:20526000AA061092A9063093AC062093AB062E81222309F46EC0223009F472C081E280933E
:20528000EB006396DEBFCDBFCF91DF91FF91EF91BF91AF919F918F917F916F915F914F9161
:2052A0003F912F911F910F91FF90EF900F900FBE0F901F9018953091E80030FDC5CF30916E
:2052C000E80030FFF8CFC0CF8B81882389F1813099F1833089F1853099F1863009F442C0D4
:2052E000873061F2883009F49DC0893029F5237030702115310511F681E08093E90091E047
:205300009093EB00E82FF0E0E05BFE4FE491E093EC0096E39093ED008F5F853070F38EE738
:205320008093EA001092EA008C818093A80604C01092F1001092F1008EEF8093E800A1CF44
:205340008091E80080FFFCCF8C8180688093E300F3CF6CDD882381F781E28093EB0091CF30
:20536000A7D2F8CF2D81223009F480C0888599851092E9001092AA061092A9069093AC0682
:205380008093AB06223209F46AC0213009F44EC0233009F073CF8C81882309F054C08EEEA3
:2053A00090E0009709F46ACFFC01249130E02115310509F4C1CF2150304040E050E06091D3
:2053C000AB067091AC0610C04091A9065091AA064F5F5F4F5093AA064093A90621153105AB
:2053E00009F4AACF21503040FC010196E4914617570754F74091E8004570E1F34091E8004C
:2054000042FD9ACFE093F1004091A9065091AA06FA013196EF73F0703097D1F6EEEFE0930D
:20542000E800D6CF81E08093F10086CF888599858830910509F481C08091AD06882361F4AA
:205440008CE291E0AECF823009F47DC0813009F015CF84E191E0A5CF8EE391E0A2CF82E275
:2054600090E033D1009709F067CF08CFE884F9841092E9001092AA061092A9061092AC06B0
:205480001092AB0619828E010F5F1F4FC8012B8BC3DCC80110D1398189E0FE013A96DF0119
:2054A000982F1D929A95E9F78A872B892B8781E08F8780E8898B8AEF8A8B8091A90690918E
:2054C000AA0609969D878C873E871092E90040E050E01092AA061092A906F092AC06E0925D
:2054E000AB0688E090E009C04F5F5F4F5093AA064093A906009769F0019731914E155F05D8
:205500009CF72091E8002570E1F32091E80022FF06C01982C80180DCC801CDD00DCF3093B1
:20552000F1009A012F5F3F4F2F73307021153105D9F62EEF2093E800D7CF81E08093AD06C1
:205540008EE391E02ECF82EF90E02BCF8093E9008091F200882319F08AE38093E8000895D9
:205560001F920F920FB60F9211242F933F934F935F936F937F938F939F93AF93BF93EF9358
:20558000FF938091E1001092E10083FF0FC01092E90091E09093EB001092EC0092E3909383
:2055A000ED001092A80698E09093F00082FF30C083E08093E9008091F200882319F08AE32F
:2055C0008093E8009FB7F89482E08093E9008091F2009FBF882369F58091A606882351F07D
:2055E0008091A60681508093A6068091A606882309F45D9A8091A706882351F08091A7069A
:2056000081508093A7068091A706882309F4289AFF91EF91BF91AF919F918F917F916F91D1
:205620005F914F913F912F910F900FBE0F901F90189588E996E0BDDB8091A6068823D1F2F9
:20564000CFCF1092A80681E08093D70080EA8093D80082E189BD89B580FFFDCF61E070E0F9
:2056600080E090E015D480E98093D8008CE08093E2001092E000559A209A089508950F93B5
:205680001F93CF93DF93EC01162FE881F9810480F581E02D0995082FE881F9810680F781B2
:2056A000E02DCE01612F0995802F90E0DF91CF911F910F910895FC0180818F5F808380E8AD
:2056C0006AEB71E049E150E019CD80E865E571E045E650E013CDEF92FF920F931F93DF93CE
:2056E000CF930F92CDB7DEB789838B017A0184E0BE016F5F7F4F41E050E058DC84E4B80116
:20570000A70154DC0F90CF91DF911F910F91FF90EF900895FC011682178210861186128654
:2057200013861482BC016C5F7F4F82E048E050E0D2CF6838F8F0685820E06623A1F0FC012A
:20574000E20FF11D3681361731F12F5F2630B8F3BC016C5F7F4F82E048E050E0BCDF21E0E9
:2057600030E0C90108952F5F263090F72F5F2630D0F3EECF67FD11C0E62FF0E0ED52FE4F3D
:2057800064916623E1F067FFD7CFFC0124812D7F24836F77D1CF1682D8CFE62FF0E0E058D7
:2057A000F04021E030E002C0220F331FEA95E2F72095FC0134813223348360E0BDCF20E0CC
:2057C00030E0C9010895CF93DF93DC016838D8F1685816968C911697861741F117968C9169
:2057E0001797861719F118968C9118978617F1F019968C9119978617C9F01A968C911A970C
:205800008617A1F01B968C911B97861779F080E0FD01E80FF11DEF0126969681992309F4F5
:2058200045C08F5F8630A0F38630A1F1BD016C5F7F4F82E048E050E04EDF21E030E0C901CB
:20584000DF91CF91089567FD12C0E62FF0E0ED52FE4F64916623F1F067FFBBCF14968C911E
:205860001497826014968C9314976F77B2CF70E06058704081E090E002C0880F991F6A9527
:20588000E2F714962C911497282B14962C93149760E09FCF81E090E013969C938E93129795
:2058A00020E030E0C901DF91CF9108956883BCCFFC0191818081813A51F0813211F080E00B
:2058C00008959B3081F09A3049F080E00895913079F081E09330D1F380E0089582818093CA
:2058E000DB0281E0089582818093DA0281E0089581E008951092AF061092B3061092B206D3
:205900008FE793E09093B1068093B0060895CF92DF92EF92FF920F931F93CF93DF936C01E5
:205920007B014115510509F1EA01219700E010E001C0EC01D7016D917D01D601ED91FC91EE
:205940000190F081E02DC6010995080F191FCE010197209771F7C801DF91CF911F910F9115
:20596000FF90EF90DF90CF90089500E010E0F3CF843030F5E82FF0E0EE0FFF1FE454F94FC1
:20598000718360838230E9F0833051F0813039F1809169008C7F842B80936900E89A089507
:2059A000809169000024569547950794569547950794542F402D8F73842B80936900EB9AE3
:2059C00008958091690042955295507F5427407F54278F7C842B80936900EA9A0895809106
:2059E0006900440F551F440F551F837F842B80936900E99A08951F920F920FB60F92112476
:205A00002F933F934F935F936F937F938F939F93AF93BF93EF93FF938091BC069091BD0657
:205A2000009729F0E091BC06F091BD060995FF91EF91BF91AF919F918F917F916F915F91B1
:205A40004F913F912F910F900FBE0F901F9018951F920F920FB60F9211242F933F934F930C
:205A60005F936F937F938F939F93AF93BF93EF93FF938091BE069091BF06009729F0E09148
:205A8000BE06F091BF060995FF91EF91BF91AF919F918F917F916F915F914F913F912F91FE
:205AA0000F900FBE0F901F9018951F920F920FB60F9211242F933F934F935F936F937F9316
:205AC0008F939F93AF93BF93EF93FF938091C0069091C106009729F0E091C006F091C106DC
:205AE0000995FF91EF91BF91AF919F918F917F916F915F914F913F912F910F900FBE0F909D
:205B00001F9018951F920F920FB60F9211242F933F934F935F936F937F938F939F93AF932A
:205B2000BF93EF93FF938091C2069091C306009729F0E091C206F091C3060995FF91EF915B
:205B4000BF91AF919F918F917F916F915F914F913F912F910F900FBE0F901F9018958231DB
:205B600008F08251E82FF0E0E753FD4FE49120917B008E2F86958695869590E081709070DD
:205B8000880F991F82959295907F9827807F98272F7D282B20937B00E7708091DC02829562
:205BA000880F880F807C8E2B80937C0080917A00806480937A0080917A0086FDFCCF2091ED
:205BC000780030917900932F80E030E0282B392BC9010895883009F44BC0893048F08B3057
:205BE000B9F18C3098F08C30C9F18E30F9F008958230D1F18330A0F0833021F18430B9F71D
:205C0000809180008F7D8093800008958930A1F08A3069F780919000877F8093900008956C
:205C2000813029F784B58F7784BD08958091C200877F8093C2000895809190008F7D80936B
:205C400090000895809180008F778093800008958091C0008F778093C00008958091C00038
:205C60008F7D8093C000089584B58F7D84BD0895809190008F77809390000895EF92FF928C
:205C8000CF93DF9390E0FC01E556FD4F449183589D4FFC0184918823E9F090E0880F991F4B
:205CA000FC01ED5AFD4F25913491D9018F599D4FFC0125913491E22EE7017E01F32EE70133
:205CC000662369F06230D1F09FB7F8948C91842B8C939FBFDF91CF91FF90EF9008959FB793
:205CE000F8948C91409584238C938881842388839FBFDF91CF91FF90EF9008959FB7F894EA
:205D00008C91242F209582238C938881842B88839FBFE0CF0F931F93DF93CF930F92CDB77D
:205D2000DEB7282F30E0F901E754FD4F8491F901E556FD4F049123583D4FF90114911123E1
:205D4000A1F08823E9F4E12FF0E0EE0FFF1FEF59FD4F85919491DC018FB7F894662359F4DB
:205D60009C91009590239C938FBF0F90CF91DF911F910F9108959C91902B9C938FBFF5CFAC
:205D8000698328DF6981DFCF0F931F93282F30E0F901E754FD4F8491F901E556FD4F049111
:205DA00023583D4FF90114911123A1F08823C1F4E12FF0E0EE0FFF1FE159FD4F859194915C
:205DC000DC018C91802321E030E021F0C9011F910F91089520E030E0C9011F910F91089586
:205DE000F9DEE6CF1F920F920FB60F9211242F933F938F939F93AF93BF938091C8069091AE
:205E0000C906A091CA06B091CB063091CC060196A11DB11D232F2D5F2D3720F02D5701967D
:205E2000A11DB11D2093CC068093C8069093C906A093CA06B093CB068091C4069091C506A0
:205E4000A091C606B091C7060196A11DB11D8093C4069093C506A093C606B093C706BF91EA
:205E6000AF919F918F913F912F910F900FBE0F901F9018958FB7F8942091C8063091C906BA
:205E80004091CA065091CB068FBFB901CA0108959B01AC017FB7F8948091C4069091C5066D
:205EA000A091C606B091C70666B5A89B05C06F3F19F00196A11DB11D7FBF211531054105EA
:205EC000510509F445C0BA2FA92F982F8827860F911DA11DB11D880F991FAA1FBB1F880FDB
:205EE000991FAA1FBB1FBC01FFB7F8948091C4069091C506A091C606B091C706E6B5A89B98
:205F000005C0EF3F19F00196A11DB11DFFBFBA2FA92F982F88278E0F911DA11DB11D880FFF
:205F2000991FAA1FBB1F880F991FAA1FBB1F861B970BE3E0883E9E0730F021503040404022
:205F4000504068517C4F211531054105510561F60895789484B5826084BD84B5816084BD6E
:205F600085B5826085BD85B5816085BDEEE6F0E0808181608083E1E8F0E0108280818260CF
:205F80008083808181608083E0E8F0E0808181608083E1E9F0E0808182608083808181603A
:205FA0008083E0E9F0E0808181608083E1ECF0E08081846080838081826080838081816013
:205FC0008083E3ECF0E0808181608083E0ECF0E0808182608083E2ECF0E080818160808335
:205FE000EAE7F0E08081846080838081826080838081816080838081806880830895629FC3
:20600000D001739FF001829FE00DF11D649FE00DF11D929FF00D839FF00D749FF00D659F31
:20602000F00D9927729FB00DE11DF91F639FB00DE11DF91FBD01CF011124089597FB092EC1
:2060400007260AD077FD04D02ED006D000201AF4709561957F4F0895F6F7909581959F4F73
:206060000895A1E21A2EAA1BBB1BFD010DC0AA1FBB1FEE1FFF1FA217B307E407F50720F01A
:20608000A21BB30BE40BF50B661F771F881F991F1A9469F760957095809590959B01AC0191
:2060A000BD01CF010895AA1BBB1B51E107C0AA1FBB1FA617B70710F0A61BB70B881F991F21
:2060C0005A95A9F780959095BC01CD0108952F923F924F925F926F927F928F929F92AF92C6
:2060E000BF92CF92DF92EF92FF920F931F93CF93DF93CDB7DEB7CA1BDB0B0FB6F894DEBF71
:206100000FBECDBF09942A88398848885F846E847D848C849B84AA84B984C884DF80EE80BD
:20612000FD800C811B81AA81B981CE0FD11D0FB6F894DEBF0FBECDBFED010895EE0FFF1F9C
:206140000590F491E02D0994CF93DF938230910510F482E090E0E091CF06F091D00640E0CC
:2061600050E020E030E026C06081718168177907E0F06817790781F4828193812115310560
:2061800031F0D90113969C938E9312972BC09093D0068093CF0626C04115510519F0641780
:2061A000750718F4AB01E901DF019F0172816381E72FF62F3097C1F64115510501F1481BB0
:2061C000590B4430510580F412968D919C911397209719F09B838A8304C09093D0068093C5
:2061E000CF06FD01329646C0FD01E40FF51F819391934250504011965C934E933BC020917C
:20620000CD063091CE062115310541F42091B3023091B4023093CE062093CD062091B50213
:206220003091B6022115310541F42DB73EB74091B1025091B202241B350BE091CD06F0910E
:20624000CE06E217F307A0F42E1B3F0B2817390778F0AC014E5F5F4F2417350748F04E0F55
:206260005F1F5093CE064093CD068193919302C0E0E0F0E0CF01DF91CF910895CF93DF93A8
:20628000009709F491C0FC013297138212826091CF067091D0066115710581F420813181D9
:2062A000280F391F8091CD069091CE068217930799F5F093CE06E093CD0676C0DB0180E0A6
:2062C00090E002C0CD01D901AE17BF0748F412962D913C91139721153105A1F7CD0121C08D
:2062E000B383A283EF01499159919E01240F351FA217B30779F42D913C911197240F351FCF
:206300002E5F3F4F3183208312962D913C91139733832283009729F4F093D006E093CF067E
:2063200043C0DC011396FC93EE9312974D915D91A40FB51FEA17FB0769F420813181240FE2
:20634000351F2E5F3F4FEC0139832883228133813B832A83E0E0F0E002C0FB01BC01DB01D1
:2063600012968D919C9113970097B9F79B012E5F3F4F8D919C911197820F931F4091CD06A8
:206380005091CE064817590779F4309729F41092D0061092CF0602C013821282225030407C
:2063A0003093CE062093CD06DF91CF910895A0E0B0E0ECEDF1E391CE8C01CB0101151105B2
:2063C00021F4C2DE082F192FB1C0D80112979801260F371F2A173B0708F4A6C0ED90FC9084
:2063E0001197E616F706C8F045E0E416F10408F49DC0A701445050404617570708F496C0FE
:20640000A70142505040461B570BF901419351936D937C93CF0132DF89C05B01AE18BF081B
:2064200048018E0C9F1CE091CF06F091D006CC24DD24C0E0D0E041C0E815F90599F5608175
:206440007181AB014E5F5F4F4A155B0558F1AB014A195B09CC24DD246894C1F8C40ED51E5D
:206460008280A380E5E0CE16D10448F0F9018282A3825183408311969C938E9309C0C701FF
:206480000296860F971F11969C938E93E82DFA2D209719F0FB83EA8349C0F093D006E09366
:2064A000CF0644C040815181C416D50608F46A01EF0152814381E52FF42F309709F0BCCF4B
:2064C0004091CD065091CE0648155905E9F4C816D906D0F44091B5025091B602411551057D
:2064E00041F44DB75EB76091B1027091B202461B570B24173507C0F43093CE062093CD06EA
:2065000011969C938E9312C01FDEC82EE6016E01D92EE601209741F08C2DB801A7010BD09E
:20652000C801ACDE860102C000E010E0C801CDB7DEB7ECE0EECDFB01DC0102C001900D92BB
:2065400041505040D8F70895F894FFCF7374645F6D7367732F54696D6500726F7373657294
:2065600069616C5F6D7367732F546F706963496E666F006B696E676669736865725F6D73A9
:2065800067732F53656E7365006B696E676669736865725F6D7367732F4472697665007315
:2065A00074645F6D7367732F426F6F6C007374645F6D7367732F466C6F61743332002F739F
:2065C000656E736500636D645F647269766500726576657273655F74696D655F6D730068B2
:2065E00061735F77696669006D6F746F725F656E61626C65000000000000000000000102BF
:206600000203030303040404040404040405050505050505050505050505050505060606EA
:20662000060606060606060606060606060606060606060606060606060606060607070797
:2066400007070707070707070707070707070707070707070707070707070707070707075A
:20666000070707070707070707070707070707070707070707070707070707070708080837
:206680000808080808080808080808080808080808080808080808080808080808080808FA
:2066A0000808080808080808080808080808080808080808080808080808080808080808DA
:2066C0000808080808080808080808080808080808080808080808080808080808080808BA
:2066E00008080808080808080808080808080808080808080808080808080808082000D1C1
:20670000060000A0A08080B8FBE0FD80FFFFFFD2000AD7A33C500080BB440000164400E18A
:20672000000000000000010101000000007C1200000000E20C5309E60900000000C508E8DA
:20674000085009000000004B0C000000004A0D4C0EE909726F7373657269616C5F6D736764
:20676000732F52657175657374506172616D0000000000EC094F0A4A0B000000001012CC0C
:206780000CCF0C000000004D0B700BD80B000000001410C60CC90C00000000EC0B010C3954
:2067A0000C00000000B60CC00CC30C00000000DB0BE20BE90B00000000AA26872C5F26861B
:2067C000266D26D726D926000000003F2B872CE32B992B8A2B00FFFFFFFFFFFFFFFFFFFF6A
:2067E000FFFFFFFFFFFFFFFFFFFFFFFFFFFFFFFFFFFFFFFFFFFFFFFFFFFFFFFFFFFFFFFFB9
:20680000FFFFFFFFFFFFFFFFFFFFFFFFFFFFFFFFFFFFFFFFFFFFFFFFFFFFFFFFFFFFFFFF98
:20682000FFFFFFFFFFFFFFFFFFFFFFFFFFFFFFFFFFFFFFFFFFFFFFFFFFFFFFFFFFFFFFFF78
:20684000FFFFFFFFFFFFFFFFFFFFFFFFFFFFFFFFFFFFFFFFFFFFFFFFFFFFFFFFFFFFFFFF58
:2070000055C000006EC000006CC000006AC0000068C0000066C0000064C0000062C0000043
:2070200060C000005EC0000078C400005AC0000058C0000056C0000054C0000052C0000068
:2070400050C000004EC000004CC000004AC0000048C0000046C0000044C0000042C00000E8
:2070600040C000003EC000003CC000003AC0000038C0000036C0000034C0000032C0000048
:2070800030C000002EC000002CC000002AC0000028C0000026C0000024C0000022C00000A8
:2070A00020C000001EC000001CC0000011241FBECFEFDAE0DEBFCDBF11E0A0E0B1E0EAE4B3
:2070C000FEE702C005900D92AC38B107D9F711E0ACE8B1E001C01D92AD39B107E1F7FED29D
